:020000040800F2
:10000000E8180020D5010008A50700089D07000892
:10001000A1070008B10400086315000800000000F3
:10002000000000000000000000000000DD0E0008DD
:10003000B5040008000000002D080008F10F0008BA
:10004000EF010008EF010008EF010008EF010008D0
:10005000EF010008EF010008EF010008EF010008C0
:10006000EF010008EF010008EF010008EF010008B0
:10007000EF010008EF010008EF010008EF010008A0
:10008000EF010008EF010008EF010008EF01000890
:10009000EF010008EF010008EF010008EF01000880
:1000A000EF010008EF010008EF010008EF01000870
:1000B000EF01000855100008EF010008EF010008EB
:1000C000EF010008EF010008EF010008EF01000850
:1000D000EF01000819130008EF010008EF01000804
:1000E000EF010008EF010008EF010008EF01000830
:1000F000EF010008EF010008EF010008EF01000820
:10010000EF010008EF010008EF010008EF0100080F
:10011000EF010008EF010008EF010008EF010008FF
:10012000EF010008EF010008EF010008EF010008EF
:1001300000F002F800F03FF80AA090E8000C8244BA
:100140008344AAF10107DA4501D100F034F8AFF297
:10015000090EBAE80F0013F0010F18BFFB1A43F0A5
:1001600001031847183F0000383F0000103A24BF31
:1001700078C878C1FAD8520724BF30C830C144BF0C
:1001800004680C607047000000230024002500264E
:10019000103A28BF78C1FBD8520728BF30C148BFEA
:1001A0000B607047642900F07F80002070471FB506
:1001B0001FBD10B510BD00F04CF91146FFF7F7FF59
:1001C00001F0C8FD00F06AF903B4FFF7F2FF03BCC9
:1001D00001F0B2FA0948804709480047FEE7FEE708
:1001E000FEE7FEE7FEE7FEE7FEE7FEE7FEE7FEE7E7
:1001F00004480549054A064B70470000F50F000802
:1002000031010008E8120020E8180020E81400205E
:10021000E8140020704700000FB41CB5074B06AA75
:100220007B4469460090059800F0FBF80020694681
:1002300000F00AF91CBC5DF814FB00002502000068
:100240002DE9F0410E460446002020622046E16878
:10025000884730B3252805D0D4E901219047206A8A
:10026000401CF2E7E168204600278847050018D0C7
:10027000A5F14100192802D820354FF40067324615
:10028000294620462760FFF78DFF40B1012804D0A2
:10029000F61D26F007060836D8E7361DD6E72846AD
:1002A000DAE7206ABDE8F0812DE9F0410646002436
:1002B00010687529314616A510D0AFF300800028CC
:1002C00002DA404213A507E031688A0701D512A57A
:1002D00002E0490704D511A5012401E0AFF3008035
:1002E00000210A2206F1240709E0B0FBF2FCB0FB72
:1002F000F2F302FB1C00303078541846491C0028E9
:10030000F3D123462A463046BDE8F04100F02BB831
:10031000000000002D0000002B0000002000000065
:1003200010B5431C02E010F8011B71B18107FAD12E
:100330004FF0013202C88C1A8C4314EAC211F9D072
:10034000C01A0A0603D0C01E10BDC01A10BD0A0490
:1003500001D0801E10BD0902FCD0401E10BD7047A8
:100360007047704770472DE9F0470D469946924611
:10037000044600F124080168880604D5E06921F0EC
:100380001001216000E00120A84201DD471B00E0D0
:100390000027A1697A1902EB0900081AA0612078E8
:1003A000C00602D42046AFF30080002608E0D4E95E
:1003B00001211AF806009047206A401C761C206232
:1003C0004E45F4DB2078C0060AD52046AFF3008006
:1003D00006E0D4E9012130209047206A401C2062C9
:1003E000381EA7F10107F4DC07E0D4E9012118F871
:1003F00005009047206A401C2062281EA5F10105D7
:10040000F3DC2046AFF300802078000602D50220FE
:10041000BDE8F0870120FBE701694A1C026108780A
:10042000704700B58FB0CDE9013100210591054934
:100430007944CDE9031011466846FFF701FF0FB07C
:1004400000BD0000E5FFFFFF0A6802F8010B0A602B
:100450007047754600F028F8AE46050069465346D9
:1004600020F00700854618B020B5FFF7C1FEBDE8B3
:1004700020404FF000064FF000074FF000084FF00B
:10048000000B21F00701AC46ACE8C009ACE8C0099C
:10049000ACE8C009ACE8C0098D4670470446AFF32C
:1004A00000802046FFF790FE004870478812002029
:1004B00000BFFEE770472DE9F04102460025002607
:1004C000002000230024002791F803C00CF00F0542
:1004D00091F803C00CF0100CBCF1000F03D091F8A0
:1004E00002C04CEA050591F800C0BCF1000F31D004
:1004F000146800202BE04FF0010C0CFA00F3B1F867
:1005000000C00CEA03069E4220D183004FF00F0C7E
:100510000CFA03F7BC4305FA03FC4CEA040491F817
:1005200003C0BCF1280F06D14FF0010C0CFA00FCFF
:10053000C2F814C00AE091F803C0BCF1480F05D11D
:100540004FF0010C0CFA00FCC2F810C0401C082847
:10055000D1D31460B1F800C0BCF1FF0F34DD546892
:1005600000202EE000F1080C4FF0010808FA0CF30F
:10057000B1F800C00CEA03069E4221D183004FF07F
:100580000F0C0CFA03F7BC4305FA03FC4CEA040415
:1005900091F803C0BCF1280F05D100F1080C08FA4E
:1005A0000CF8C2F8148091F803C0BCF1480F07D1D1
:1005B00000F1080C4FF0010808FA0CF8C2F810809E
:1005C000401C0828CED35460BDE8F081016170471B
:1005D00070B504460025012C0ED100202249086088
:1005E0008F2000F071FAFF2000F06EFA054601201E
:1005F0001E49C1F8A00134E0022C0FD100201A4995
:10060000091D08608F2000F05FFAFF2000F05CFAFF
:10061000054601201549C1F8A40122E0032C0FD1A1
:1006200000201149083108608F2000F04DFAFF20AA
:1006300000F04AFA054601200C49C1F8A80110E073
:10064000042C0ED1002008490C3108608F2000F0E6
:100650003BFAFF2000F038FA054601200349C1F8B3
:10066000AC01284670BD0000A081214200802142DB
:100670000170704710B50446012C0DD100202049AF
:100680000860202000F020FA3F2000F01DFA012031
:100690001C49C1F8A00131E0022C0ED100201849FC
:1006A000091D0860202000F00FFA3F2000F00CFA2E
:1006B00001201449C1F8A40120E0032C0ED1002030
:1006C0000F4908310860202000F0FEF93F2000F0BB
:1006D000FBF901200B49C1F8A8010FE0042C0DD152
:1006E000002007490C310860202000F0EDF93F2080
:1006F00000F0EAF901200349C1F8AC0110BD000087
:10070000A08121420080214210B50446012C0DD168
:10071000002020490860232000F0D6F9902000F046
:10072000D3F901201C49C1F8A00131E0022C0ED1FF
:1007300000201849091D0860232000F0C5F9902009
:1007400000F0C2F901201449C1F8A40120E0032CF3
:100750000ED100200F4908310860232000F0B4F9C1
:10076000902000F0B1F901200B49C1F8A8010FE079
:10077000042C0DD1002007490C310860232000F023
:10078000A3F9902000F0A0F901200349C1F8AC01C1
:1007900010BD0000A08121420080214200BFFEE781
:1007A00000BFFEE77047000070B5002100230F2254
:1007B000C47804B3154C246804F4E064C4F5E06420
:1007C000210AC1F10403CA40447804FA03F1847891
:1007D0001440214309010E4C0678A155047804F019
:1007E0001F050124AC4005786D11AD0005F1E02531
:1007F000C5F8004109E0047804F01F050124AC406D
:10080000044D0678761145F8264070BD0CED00E0E9
:1008100000E400E080E100E002490143024A116087
:10082000704700000000FA050CED00E07047000082
:1008300029B1064AD2690243044BDA6104E0034A53
:10084000D2698243014BDA61704700000010024018
:1008500029B1064A92690243044B9A6104E0034AB3
:1008600092698243014B9A61704700000010024078
:1008700030B500210022002400232D4D6D6805F0C5
:100880000C0121B1042905D0082923D105E0294D07
:10089000056022E0274D05601FE0254D6D6805F4D9
:1008A0007012234D6D6805F48034022505EB9242E9
:1008B0001CB9214D554305600BE01D4D6D6805F4D5
:1008C00000351DB11C4D5543056002E0194D5543DF
:1008D000056002E0174D056000BF00BF144D6D6854
:1008E00005F0F0010909154D6B5C0568DD404560B8
:1008F0000F4D6D6805F4E061090A104D6B5C4568A9
:10090000DD4085600A4D6D6805F46051C90A0B4DE4
:100910006B5C4568DD40C560054D6D6805F4404180
:10092000890B074D6B5CC568B5FBF3F5056130BD00
:100930000010024000127A0000093D001201002060
:100940002201002008B5012141F20400FFF780FFD9
:10095000E020ADF8000018208DF8030003208DF88A
:10096000020069461248FFF7A6FDE0211048FFF794
:100970002DFE00200F4908804FF48270488000202F
:1009800088800220C88001200881400248813820E8
:1009900088810020C88107200882074800F026FAD5
:1009A0000121054800F0CEF8FF2000F007F808BD4F
:1009B00000080140760200200030014070B5054675
:1009C000002405E0601CC4B2C82C01DD002070BD0D
:1009D00002210E4800F0FCF90028F3D029460B480C
:1009E00000F002FA002405E0601CC4B2C82C01DD4E
:1009F0000020ECE70121054800F0EAF90028F3D0D7
:100A0000024800F0EEF9C0B2E1E70000003001401A
:100A100010B50446054884810146054800F0E6F912
:100A20000121034800F08EF810BD0000760200207E
:100A30000030014000B587B001210820FFF708FF12
:100A400001218803FFF7F4FE4FF46040ADF8180071
:100A500018208DF81B0003208DF81A0006A91848ED
:100A6000FFF729FD4FF460411548FFF7AFFD002067
:100A7000ADF804004FF48270ADF806000020ADF828
:100A800008000220ADF80A000120ADF80C00400279
:100A9000ADF80E003820ADF810000020ADF81200BF
:100AA0000720ADF8140001A9064800F09FF90121C4
:100AB000044800F047F8FF2000F006F807B000BD3A
:100AC000000C01400038004070B50546002405E0E8
:100AD000601CC4B2C82C01DD002070BD02210E488C
:100AE00000F076F90028F3D029460B4800F07CF995
:100AF000002405E0601CC4B2C82C01DD0020ECE736
:100B00000121054800F064F90028F3D0024800F004
:100B100068F9C0B2E1E700000038004010B50446B3
:100B2000074800884FF6C771084005490880084605
:100B30000088204308800121014800F003F810BD1F
:100B40000038004021B1028842F04002028004E0F7
:100B500002884FF6BF731A400280704710B500201C
:100B6000044908600620FFF729FF01200249C1F867
:100B7000880110BD880121420000214210B50446C1
:100B80002403FFF7EBFF00F0A3F800200B490860F7
:100B90002020FFF713FFC4F30740FFF70FFFC4F354
:100BA0000720FFF70BFFE0B2FFF708FF0120044921
:100BB000C1F8880100F08CF810BD000088012142C6
:100BC0000000214208B501210420FFF741FE1C204E
:100BD000ADF8000010208DF8030003208DF802000E
:100BE00069460848FFF767FC1C210648FFF7EEFC42
:100BF000FFF7A8FE0020FFF70BFF00F02FF80249D7
:100C0000088008BD00080140100100202DE9F041D6
:100C100006460C46174600200F4908600320FFF7E0
:100C2000CDFEC4F30740FFF7C9FEC4F30720FFF76A
:100C3000C5FEE0B2FFF7C2FE002505E0FF20FFF78A
:100C4000BDFE7055681C85B2BD42F7DB012002492C
:100C50000860BDE8F08100008801214210B5002441
:100C600000200E4908609020FFF7A8FE0020FFF743
:100C7000A5FE0020FFF7A2FE0020FFF79FFEFF2049
:100C8000FFF79CFE44EA0024FF20FFF797FE044391
:100C900001200349C1F88801204610BD8801214286
:100CA0000000214210B500240020074908600520FB
:100CB000FFF784FEFF20FFF781FE04460120034971
:100CC000C1F88801204610BD880121420000214260
:100CD00010B500BFFFF7E6FF00F001000028F9D1D2
:100CE00010BD2DE9F04707460E4614464FEA163967
:100CF000C6F30B08C8F58055AC4200DC254616E06B
:100D00002A463146384600F016F8AC4200D10FE0D2
:100D100009F101094FF000082F442E44601B84B2F2
:100D2000B4F5805F02DD4FF4805500E02546E7E72B
:100D300000BFBDE8F0872DE9F04107460E46144696
:100D4000F0B2C0F58075AC4200DC254612E02A46C0
:100D50003146384600F012F8AC4200D10BE02F4487
:100D60002E44601B84B2B4F5807F02DD4FF48075A1
:100D700000E02546EBE700BFBDE8F0812DE9F0413A
:100D800006460C461746FFF7E9FE00200F490860AB
:100D90000220FFF713FEC4F30740FFF70FFEC4F372
:100DA0000720FFF70BFEE0B2FFF708FE002504E086
:100DB000705DFFF703FE681C85B2BD42F8DB0120C1
:100DC00002490860FFF784FFBDE8F08188012142F5
:100DD0000246002013890B400BB1012000E00020E7
:100DE00070470146888970478181704710B500229D
:100DF000028802F441520B884C8823438C88234399
:100E0000CC8823430C8923434C8923438C89234377
:100E1000CC8923431A430280838B4FF2FF74234013
:100E200083830B8A038210BD08B501210820FFF7D8
:100E30000FFD4FF48060ADF8000010208DF8030026
:100E400003208DF8020069462148FFF734FB4FF478
:100E500080611F48FFF7BAFB4FF48070ADF80000C7
:100E600069461B48FFF727FB8020ADF80000694664
:100E70001748FFF720FB4FF40070ADF800006946FB
:100E80001348FFF718FB4FF40060ADF80000694607
:100E90000F48FFF710FB4FF48060ADF80000694683
:100EA0000B48FFF708FB01200A4908600A49C1F80E
:100EB000A401084908310860091D08600549091F97
:100EC0000860FFF7B7FD0020FFF728FE08BD00000F
:100ED000000C0140A081214200802142704710B5E2
:100EE00000F002F810BD00000CB500200190009049
:100EF0003348006840F480303149086000BF304812
:100F0000006800F4003000900198401C01900098A7
:100F100018B90198B0F5A06FF1D12948006800F424
:100F2000003010B10120009001E0002000900098F6
:100F3000012843D12348006840F01000214908608F
:100F40000846006820F0030008600846006840F08A
:100F5000020008601A48406819494860084640681D
:100F600048600846406840F4806048600846406831
:100F700020F47C1048600846406840F4E81048605F
:100F80000846006840F08070086000BF0C480068A8
:100F900000F000700028F9D00948406820F00300F4
:100FA000074948600846406840F00200486000BFBA
:100FB0000348406800F00C000828F9D10CBD00007F
:100FC0000010024000200240042808D14FF0E02128
:100FD000096941F004014FF0E022116107E04FF090
:100FE000E021096921F004014FF0E022116170470E
:100FF0007047000010B51348006840F00100114927
:10100000086008464068104908400E494860084694
:1010100000680E4908400B4908600846006820F443
:10102000802008600846406820F4FE0048604FF4C5
:101030001F008860FFF753FF4FF00060044908600D
:1010400010BD0000001002400000FFF8FFFFF6FE98
:1010500008ED00E010B586B001214B4800F0EFF834
:1010600000287DD00121484800F0DAF84748008880
:10107000401C4649088008460088B0F57A7F07D1B1
:1010800043480078401C4249087000203F490880CE
:101090003F4800783C2807D13E480078401C3D4935
:1010A000087000203A4908703B4801F0DFFF3B48D8
:1010B00001F0DCFF3A4801F0D9FF3A4801F0D6FFD1
:1010C00000241EE0384A3949394802F0C1F839484D
:1010D00000683749B1F900100844364908603648BD
:1010E00000683249B1F900100844334908603348B8
:1010F00000682D49B1F90010084430490860601CAF
:10110000C4B20A2CDEDB2B4800680A2190FBF1F008
:1011100000B2274908800020264908602648006858
:101120000A2190FBF1F000B22049088000202249FA
:101130000860224800680A2190FBF1F000B21A49C9
:10114000088000201D4908601748B0F900001749C1
:10115000B1F90010164AB2F900200E4B1B7800E0DE
:101160000FE0CDE90232CDE90410094800780749C3
:1011700009880C4B0A4ACDE900100849064800F0DE
:10118000DFFA06B010BD000000040040D4000020CB
:10119000D6000020D7000020D8000020E00000206A
:1011A000E8000020F0000020FC000020FA000020F1
:1011B000F8000020000100200401002008010020A8
:1011C0007FB505460C4601210220FFF731FBADF843
:1011D0000850ADF804400020ADF80A00ADF8060054
:1011E00001A90E4800F046F8012211460B4800F014
:1011F00037F81D208DF8000000208DF80100032035
:101200008DF8020001208DF803006846FFF7CCFA44
:101210000121024800F007F87FBD000000040040F3
:10122000CA430282704721B1028842F00102028063
:1012300004E002884FF6FE731A400280704730B512
:101240000246002000230024158A05EA010395893F
:1012500005EA010413B10CB1012000E0002030BD0B
:101260001AB183890B43838102E083898B43838195
:1012700070470000002202881D4B98420ED01D4B83
:1012800098420BD0B0F1804F08D01B4B984205D04C
:101290001A4B984202D01A4B984204D14FF68F73E2
:1012A0001A404B881A43174B984207D0164B984266
:1012B00004D04FF6FF431A40CB881A4302808B8834
:1012C00083850B8803850A4B98420BD0094B9842C3
:1012D00008D00E4B984205D00D4B984202D00D4BD2
:1012E000984201D10B7A0386012383827047000064
:1012F000002C014000340140000400400008004080
:10130000000C00400010004000140040004001406C
:10131000004401400048014010B540F225511A48F0
:1013200000F05BF870B3184800F012F9C4B2174827
:101330001749098844544F2C06D1012015490870DB
:1013400013480088144908804B2C06D1012013490A
:1013500008700F480088124908800E48007860B174
:101360000E48007848B10E4801880B480088401CA0
:10137000814202D101200B49087005480088401CB9
:101380000349088010BD0000003801408C01002096
:10139000C600002040000020420000204100002044
:1013A00044000020C500002021B1828942F400528F
:1013B000828104E082894DF6FF731A408281704772
:1013C00002460020B1F5007F00D100BF13880B401A
:1013D0000BB1012000E00020704770B502460024E8
:1013E00000230025002040F66A16B14200D100BF5C
:1013F000C1F3421501F01F03012606FA03F3012D84
:1014000002D19689334006E0022D02D1168A33407C
:1014100001E0968A33400C12012606FA04F416887D
:10142000344013B10CB1012000E0002070BDF0B5D4
:101430000346002400260025002040F66A17B94222
:1014400000D100BF1846C1F3421401F01F06012766
:1014500007FA06F5012C01D10C3004E0022C01D171
:10146000103000E014301AB107682F43076002E023
:101470000768AF430760F0BD2DE9F04786B0054629
:101480000E460024A24600BFA1460027B08900B145
:1014900000BF2F462C8A4CF6FF700440F0880443AE
:1014A0002C82AC894EF6F3100440B0883189084391
:1014B000718908430443AC81AC8A4FF6FF40044075
:1014C000B0890443AC8201A8FFF7D2F91F488742D4
:1014D00002D1DDF810A001E0DDF80CA0A88900F42D
:1014E000004040B10AEBCA0000EB0A103168490025
:1014F000B0FBF1F807E00AEBCA0000EB0A10316814
:101500008900B0FBF1F86420B8FBF0F00401200979
:10151000642101FB1089A88900F4004040B1322009
:1015200000EBC900B0FBF1F000F00700044308E055
:10153000322000EB09106421B0FBF1F000F00F0045
:1015400004432C8106B0BDE8F0870000003801405C
:1015500001468888C0F308007047C1F30802828002
:10156000704700BFFEE7000070B5054600240CE0A0
:1015700000BF40211348FFF723FF0028F9D0295D61
:101580001048FFF7EAFF601CC4B22846FEF7C8FE09
:10159000A042EDD800BF40210A48FFF711FF002804
:1015A000F9D00D210748FFF7D8FF00BF40210548BB
:1015B000FFF706FF0028F9D00A210248FFF7CDFF08
:1015C00070BD00000038014010B54E48FFF7CCFF59
:1015D00000BF4D4800780028FBD000204A49087021
:1015E0004A4908704A4908704A4908804A490880AF
:1015F0004A4908804A48FFF7B7FF00BF42480078D1
:101600000028FBD00020404908704049087040493C
:1016100008704049088040490880404908804FF4DC
:10162000FA7000F071FB3F48FFF79EFF00BF36489D
:1016300000780028FBD00020334908703349087037
:10164000334908703349088033490880334908809A
:101650004FF4FA7000F058FB3348FFF785FF00BFE6
:10166000294800780028FBD0002027490870274926
:1016700008702749087027490880274908802749AA
:1016800008802A48FFF770FF00BF1F480078002835
:10169000FBD000201C4908701C4908701C490870C8
:1016A0001C4908801C4908801C4908802048FFF715
:1016B0005BFF00BF144800780028FBD000201249CF
:1016C00008701249087012490870124908801249BE
:1016D0000880124908801748FFF746FF00BF0A48F4
:1016E00000780028FBD000200749087007490870DF
:1016F000074908700749088007490880074908809A
:1017000010BD000046000020C50000204000002061
:10171000410000204200002044000020C6000020BC
:1017200052000020590000207F0000208800002087
:10173000AD000020BA000020014600BF7047000045
:101740002DE9F05F04460D4616461F46DDE90EAB57
:10175000DDF83490DDF82880FE48007800287CD041
:10176000FD490C9808700B9848704FEA2820887043
:1017700081F803806088000A0871A0784871A08809
:10178000000A88712079C871E088000A0872A0797F
:1017900048726888000A8872A878C872A888000A07
:1017A000087328794873E888000A8873A879C87391
:1017B0007088000A0874B0784874B088000A887489
:1017C0003079C874F088000A0875B079487578884F
:1017D000000A8875B878C875B888000A087638791C
:1017E0004876F888000A8876B879C8764FEA1920D2
:1017F000087781F81D904FEA1A20887781F81FA09A
:101800004FEA1B2081F8200081F821B02222D34822
:101810000168D148FFF765FAD04800682230CF4907
:101820000860CF480078401CCD4908700846007811
:101830001D2810D10020C7490870CA480078401CF4
:10184000C8490870C848006800F58050C64908605B
:101850000020C34908702AE2FFE7B4F90200B0F59E
:10186000C87F18DCB4F90400B0F5C87F13DCB4F904
:101870000600B0F5C87F0EDCB4F9020010F5C87F91
:1018800009DBB4F9040010F5C87F04DBB4F90600E5
:1018900010F5C87F68DAB4480068B0490860AE49FE
:1018A0000C9808700B9848704FEA2820887081F8CF
:1018B00003806088000A0871A0784871A088000A37
:1018C00088712079C871E088000A0872A07948728E
:1018D0006888000A8872A878C872A888000A087305
:1018E00028794873E888000A8873A879C8737088D3
:1018F000000A0874B0784874B088000A8874307997
:10190000C874F088000A0875B07948757888000AAC
:101910008875B878C875B888000A08763879487626
:10192000F888000A8876B879C8764FEA19200877CF
:1019300081F81D904FEA1A20887781F81FA04FEA9E
:101940001B2081F8200081F821B022228348016801
:101950008148FFF7C6F98148006822307F49086056
:1019600001207C490870A2E1B5F90200B0F5C87FFA
:1019700018DCB5F90400B0F5C87F13DCB5F9060032
:10198000B0F5C87F0EDCB5F9020010F5C87F09DBA1
:10199000B5F9040010F5C87F04DBB5F9060010F5B1
:1019A000C87F68DA704800686C4908606A490C981A
:1019B00008700B9848704FEA2820887081F80380DF
:1019C0006088000A0871A0784871A088000A8871B0
:1019D0002079C871E088000A0872A0794872688886
:1019E000000A8872A878C872A888000A0873287943
:1019F0004873E888000A8873A879C8737088000A59
:101A00000874B0784874B088000A88743079C87453
:101A1000F088000A0875B07948757888000A8875DA
:101A2000B878C875B888000A087638794876F88892
:101A3000000A8876B879C8764FEA1920087781F8C5
:101A40001D904FEA1A20887781F81FA04FEA1B20CB
:101A500081F8200081F821B02222404801683E48E8
:101A6000FFF73FF93D48006822303C4908600120FB
:101A7000384908701BE1B6F90200B0F5C87F18DCE0
:101A8000B6F90400B0F5C87F13DCB6F90600B0F56E
:101A9000C87F0EDCB6F9020010F5C87F09DBB6F985
:101AA000040010F5C87F04DBB6F9060010F5C87F06
:101AB00077DA2D4800682949086027490C98087092
:101AC0000B9848704FEA2820887081F8038060885E
:101AD000000A0871A0784871A088000A88712079EE
:101AE000C871E088000A0872A07948726888000A04
:101AF0008872A878C872A888000A08732879487381
:101B0000E888000A8873A879C8737088000A087486
:101B1000B0784874B088000A88743079C874F08846
:101B2000000A0875B07948757888000A8875B87811
:101B3000C875B888000A087638794876F888000AA7
:101B40008876B879C8764FEA1920087781F81D9011
:101B50000CE00000D000002054020020CC00002047
:101B6000D2000020D1000020C80000204FEA1A2037
:101B7000887781F81FA04FEA1B2081F8200081F8A8
:101B800021B022224B4801684B48FFF7AAF8494888
:101B9000006822304749086001204849087086E003
:101BA000FFE7B7F90200B0F5C87F18DCB7F9040009
:101BB000B0F5C87F13DCB7F90600B0F5C87F0EDCBE
:101BC000B7F9020010F5C87F09DBB7F9040010F57A
:101BD000C87F04DBB7F9060010F5C87F67DA38481C
:101BE00000683449086034490C9808700B984870B4
:101BF0004FEA2820887081F803806088000A087105
:101C0000A0784871A088000A88712079C871E0889E
:101C1000000A0872A07948726888000A8872A87859
:101C2000C872A888000A087328794873E888000AEF
:101C30008873A879C8737088000A0874B0784874EB
:101C4000B088000A88743079C874F088000A087572
:101C5000B07948757888000A8875B878C875B888EA
:101C6000000A087638794876F888000A8876B879C4
:101C7000C8764FEA1920087781F81D904FEA1A209C
:101C8000887781F81FA04FEA1B2081F8200081F897
:101C900021B02222074801680748FFF722F80548CB
:101CA0000068223003490860012004490870BDE83B
:101CB000F09F0000CC00002054020020D000002043
:101CC000C800002010B56FF00400FFF77DF90A4846
:101CD00000680A49B0FBF1F009490870084600782D
:101CE00000EB4001C1EBC0104FF6FF7101EAC000EC
:101CF0000449088010BD00002400002000127A0072
:101D0000380000203A0000200146114A12884A4358
:101D10004FF0E0235A6100229A611A46126942F09C
:101D200001021A6100BF4FF0E022106900F00102C9
:101D30001AB100F48032002AF5D04FF0E022126987
:101D400022F001024FF0E0231A6100229A617047ED
:101D50003A00002088B0FFF7B5FF4FF4E13001F002
:101D60007BFC4FF4A060FEF757FDFFF75DF8FEF730
:101D700029FF01F0E1F8FE490870FFF725FC01207A
:101D8000069006E00698FEF7F9FE0698401CC0B2E1
:101D9000069006986428F5DB0120FEF719FCF5494A
:101DA00008700220FEF714FCF24908700320FEF7C9
:101DB0000FFCF04908700420FEF70AFCED4908709A
:101DC0000121ED48FEF754FC0221EC48FEF750FCDF
:101DD0000321EB48FEF74CFC0421EA48FEF748FCDF
:101DE0000120069006E00698FEF744FC0698401C89
:101DF000C0B2069006980528F5DB0120069006E0A3
:101E00000698FEF781FC0698401CC0B20690069822
:101E10000528F5DB01F068F801F07AF8DAA0FFF7A1
:101E2000A3FB41F61F410920FFF7CAF901F04DB8A5
:101E3000DC480078DC4909788842F7DA002006900F
:101E400001F03AB8D74800780103069800EB00107B
:101E500001EB4000012201460590D448FEF7D6FE72
:101E6000D2480078D2490860CE480078010306982D
:101E700000EB001001EB4000401C012201460590E0
:101E8000CA48FEF7C3FEC9480078CA490860C54879
:101E900000780103069800EB001001EB4000801C65
:101EA000012201460590C148FEF7B0FEBF48007808
:101EB000C1490860BB4800780103069800EB001098
:101EC00001EB4000C01C012201460590B748FEF717
:101ED0009DFEB6480078B849096800EB0120B64974
:101EE0000860084600680090B2480368B048B3A193
:101EF0000268B548FEF790F9B348FFF735FBA948EB
:101F000000780103069800EB001001EB4000001D73
:101F1000012201460590A548FEF778FEA348007807
:101F2000AA4908809F4800780103069800EB00103A
:101F300001EB4000401D0122014605909B48FEF741
:101F400065FE9A480078A149097800EB012000B2AB
:101F50009E4908800846B0F9000001F057FD0022B4
:101F60009B4BCDE9000101F069FD0022994BCDE9C1
:101F7000020101F0F3FBCDE9040101F0BDFB96493C
:101F800008600846006801F0C5FE944908600846EC
:101F9000006801F0DBFE05908F480168059801F0AC
:101FA000EDFF8D49086000218B48006801F0E6FED6
:101FB0000DD28948006880F000408949049001F002
:101FC00011FF059001F0A6FE8649086009E08449EA
:101FD0008148006801F006FF059001F09BFE8149F1
:101FE0000860804803687D487FA102687648FEF754
:101FF00013F97548FFF7B8FA6A48007801030698A4
:1020000000EB001001EB4000801D0122014605900D
:102010006648FEF7FBFD654800786C49088061481A
:1020200000780103069800EB001001EB4000C01D92
:102030000122014605905D48FEF7E8FD5B48007807
:102040006249097800EB012000B260490880084627
:10205000B0F9000001F0DAFC00225D4BCDE900018F
:1020600001F0ECFC00225B4BCDE9020101F076FBB4
:10207000CDE9040101F040FB5749086008460068BB
:1020800001F048FE554908600846006801F05EFE10
:10209000059051480168059801F070FF4E490860AD
:1020A00000214D48006801F069FE0DD24A480068E1
:1020B00080F000404A49049001F094FE059001F040
:1020C00029FE4849086009E045494348006801F095
:1020D00089FE059001F01EFE4249086041480368F0
:1020E0003E4841A102683848FEF796F83648FFF7A7
:1020F0003BFA2C4800780103069800EB001001EB36
:10210000400008300122014605902848FEF77EFD78
:10211000264800782D490880224800780103069857
:1021200000EB001001EB4000093001220146059050
:102130001E48FEF76BFD1D4800782449097800EB26
:10214000012000B2214908800846B0F9000001F0E2
:102150005DFC00221E4BCDE9000101F06FFC002266
:102160001C4BCDE9020101F0F9FACDE904013FE091
:102170000100002000000020D8000020E000002026
:10218000E8000020F0000020496E697469616C6904
:102190007A6174696F6E20436F6D706C65746564ED
:1021A0002100000002000020D100002003000020D8
:1021B00018000020100000201400002025642E25A7
:1021C000642E256400000000280100201C0000206F
:1021D0000080584000408F4004000020080000208C
:1021E00000007A440C00002025642E2564000000C5
:1021F00001F082FAFE4908600846006801F08AFD95
:10220000FC4908600846006801F0A0FD0590F84808
:102210000168059801F0B2FEF54908600021F44814
:10222000006801F0ABFD0DD2F148006880F000407D
:10223000F149049001F0D6FD059001F06BFDEF49E6
:10224000086009E0EC49EA48006801F0CBFD059020
:1022500001F060FDE9490860E8480368E548AFF22D
:1022600078010268E648FDF7D7FFE548FFF77CF9FB
:10227000E44800780103069800EB001001EB4000F1
:102280000A30012201460590DF48FEF7BFFCDE4818
:102290000078DE490880DB4800780103069800EBEF
:1022A000001001EB40000B30012201460590D6489A
:1022B000FEF7ACFCD4480078D449097800EB012043
:1022C00000B2D24908800846B0F9000001F09EFB38
:1022D0000022CF4BCDE9000101F0B0FB0022CD4B35
:1022E000CDE9020101F03AFACDE9040101F004FA66
:1022F000BF4908600846006801F00CFDBD49086050
:102300000846006801F022FD0590B948016805986B
:1023100001F034FEB64908600021B548006801F0BC
:102320002DFD0DD2B248006880F00040B249049003
:1023300001F058FD059001F0EDFCB049086009E09E
:10234000AD49AB48006801F04DFD059001F0E2FC9D
:10235000AA490860A9480368A648AFF27411026848
:10236000A748FDF759FFA648FFF7FEF8A5480078F3
:102370000103069800EB001001EB40000C30012235
:1023800001460590A048FEF741FC9F4800789F4910
:1023900008809C4800780103069800EB001001EBD0
:1023A00040000D300122014605909748FEF72EFCB3
:1023B000954800789549097800EB012000B29349CF
:1023C00008800846B0F9000001F020FB0022904B85
:1023D000CDE9000101F032FB00228E4BCDE9020174
:1023E00001F0BCF9CDE9040101F086F980490860EB
:1023F0000846006801F08EFC7E49086008460068C7
:1024000001F0A4FC05907A480168059801F0B6FD3A
:102410007749086000217648006801F0AFFC0DD2D2
:102420007348006880F000407349049001F0DAFCC2
:10243000059001F06FFC7149086009E06E496C4835
:10244000006801F0CFFC059001F064FC6B49086066
:102450006A4803686748AFF2702102686848FDF770
:10246000DBFE6748FFF780F86648007801030698AE
:1024700000EB001001EB40000E30012201460590F8
:102480006148FEF7C3FB60480078604908805D48FA
:1024900000780103069800EB001001EB40000F30BC
:1024A0000122014605905848FEF7B0FB56480078D7
:1024B0005649097800EB012000B2544908800846CB
:1024C000B0F9000001F0A2FA0022514BCDE9000161
:1024D00001F0B4FA00224F4BCDE9020101F03EF9C0
:1024E000CDE9040101F008F9414908600846006897
:1024F00001F010FC3F4908600846006801F026FC26
:1025000005903B480168059801F038FD384908609E
:1025100000213748006801F031FC0DD234480068D2
:1025200080F000403449049001F05CFC059001F01B
:10253000F1FB3249086009E02F492D48006801F09D
:1025400051FC059001F0E6FB2C4908602B4803681C
:102550002848AFF26C3102682948FDF75DFE284833
:10256000FFF702F8274800780103069800EB0010F7
:1025700001EB400010300122014605902248FEF791
:1025800045FB21480078214908801E480078010356
:10259000069800EB001001EB4000113001220146CB
:1025A00005901948FEF732FB17480078174909785B
:1025B00000EB012000B2154908800846B0F9000080
:1025C00001F024FA0022124BCDE9000101F036FAA5
:1025D0000022104BCDE9020101F0C0F8CDE9040161
:1025E00001F08AF8024908600846006814E000001B
:1025F000040000200800002000007A440C000020A5
:102600002801002002000020030000201C00002000
:102610000080584000408F4001F07CFBFE4908607C
:102620000846006801F092FB0590FC480168059897
:1026300001F0A4FCF94908600021F848006801F0A5
:102640009DFB0DD2F548006880F00040F4490490ED
:1026500001F0C8FB059001F05DFBF249086009E05C
:10266000EF49EE48006801F0BDFB059001F052FB18
:10267000EC490860EB480368E748AFF29441026810
:10268000E948FDF7C9FDE848FEF76EFFE748007826
:102690000103069800EB001001EB4000123001220C
:1026A00001460590E248FEF7B1FAE1480078E149B9
:1026B0000880DE4800780103069800EB001001EB6B
:1026C00040001330012201460590D948FEF79EFADA
:1026D000D7480078D749097800EB012000B2D549E6
:1026E00008800846B0F9000001F090F90022D24BB2
:1026F000CDE9000101F0A2F90022D04BCDE90201A1
:1027000001F02CF8CDE9040100F0F6FFC3490860A0
:102710000846006801F0FEFABF49086008460068F4
:1027200001F014FB0590BD480168059801F026FCF6
:10273000BA4908600021B948006801F01FFB0DD2BA
:10274000B648006880F00040B549049001F04AFBAB
:10275000059001F0DFFAB349086009E0B049AF48DD
:10276000006801F03FFB059001F0D4FAAD49086024
:10277000AC480368A848AFF290510268AA48FDF738
:102780004BFDA948FEF7F0FEA84800780103069823
:1027900000EB001001EB40001430012201460590CF
:1027A000A348FEF733FAA2480078A24908809F4860
:1027B00000780103069800EB001001EB4000153093
:1027C0000122014605909A48FEF720FA98480078C1
:1027D0009849097800EB012000B296490880084624
:1027E000B0F9000001F012F90022934BCDE900018D
:1027F00001F024F90022914BCDE9020100F0AEFF77
:10280000CDE9040100F078FF8449086008460068BB
:1028100001F080FA804908600846006801F096FAE5
:1028200005907E480168059801F0A8FB7B49086087
:1028300000217A48006801F0A1FA0DD277480068BB
:1028400080F000407649049001F0CCFA059001F048
:1028500061FA7449086009E071497048006801F044
:10286000C1FA059001F056FA6E4908606D48036898
:102870006948AFF28C6102686B48FDF7CDFC6A488D
:10288000FEF772FE694800780103069800EB00101D
:1028900001EB400016300122014605906448FEF726
:1028A000B5F96348007863490880604800780103FF
:1028B000069800EB001001EB4000173001220146A2
:1028C00005905B48FEF7A2F9594800785949097804
:1028D00000EB012000B2574908800846B0F900001B
:1028E00001F094F80022544BCDE9000101F0A6F864
:1028F0000022524BCDE9020100F030FFCDE9040186
:1029000000F0FAFE454908600846006801F002FA46
:10291000414908600846006801F018FA05903F48F0
:102920000168059801F02AFB3C49086000213B48FA
:10293000006801F023FA0DD23848006880F00040AA
:102940003749049001F04EFA059001F0E3F935495A
:10295000086009E032493148006801F043FA059007
:1029600001F0D8F92F4908602E4803682A48AFF2D1
:10297000887102682C48FDF74FFC2B48FEF7F4FDE8
:102980002A4800780103069800EB001001EB400094
:1029900018300122014605902548FEF737F92448F2
:1029A000007824490880214800780103069800EB4C
:1029B000001001EB400019300122014605901C482F
:1029C000FEF724F91A4800781A49097800EB01202B
:1029D00000B2184908800846B0F9000001F016F866
:1029E0000022154BCDE9000101F028F80022134B1D
:1029F000CDE9020100F0B2FECDE9040100F07CFE59
:102A0000064908600846006801F084F90249086038
:102A10000846006814E000000800002004000020C0
:102A200000007A440C000020280100200200002051
:102A3000030000201C0000200080584000408F4010
:102A400001F084F90590FE480168059801F096FAB6
:102A5000FB4908600021FA48006801F08FF90DD2A7
:102A6000F748006880F00040F649049001F0BAF998
:102A7000059001F04FF9F449086009E0F149F04888
:102A8000006801F0AFF9059001F044F9EE490860E3
:102A9000ED480368ED48AFF6B0010268EC48FDF779
:102AA000BBFBEB48FEF760FDEA480078010306989F
:102AB00000EB001001EB40001A30012201460590A6
:102AC000E548FEF7A3F8E4480078E4490880E148C7
:102AD00000780103069800EB001001EB40001B306A
:102AE000012201460590DC48FEF790F8DA480078AC
:102AF000DA49097800EB012000B2D849088008467D
:102B0000B0F9000000F082FF0022D54BCDE90001B2
:102B100000F094FF0022D34BCDE9020100F01EFE2D
:102B2000CDE9040100F0E8FDC549086008460068E9
:102B300001F0F0F8C54908600846006801F006F9A0
:102B40000590BF480168059801F018FABC49086073
:102B50000021BB48006801F011F90DD2B8480068A7
:102B600080F00040B749049001F03CF9059001F075
:102B7000D1F8B549086009E0B249B148006801F0F0
:102B800031F9059001F0C6F8AF490860AE48036816
:102B9000AE48AFF6AC110268AD48FDF73DFBAC485E
:102BA000FEF7E2FCAB4800780103069800EB00104A
:102BB00001EB40001C30012201460590A648FEF7BB
:102BC00025F8A5480078A5490880A24800780103A7
:102BD000069800EB001001EB40001D300122014679
:102BE00005909D48FEF712F89B4800789B490978AC
:102BF00000EB012000B2994908800846B0F90000B6
:102C000000F004FF4FF06632974BCDE9020100F06F
:102C1000A5FDCDE9040100F06FFD89490860084673
:102C2000006801F077F8894908600846006801F0FB
:102C30008DF8059082480168059801F09FF9804958
:102C4000086000217E48006801F098F80DD27C48A9
:102C5000006880F000407B49049001F0C3F80590C3
:102C600001F058F87849086009E07649744800682E
:102C700001F0B8F8059001F04DF87349086072480A
:102C800003687248AFF6A02102687148FDF7C4FAE4
:102C90006F48FEF769FC6F4800780103069800EB67
:102CA000001001EB40001E300122014605906A48E9
:102CB000FDF7ACFF684800786849088065480078EF
:102CC0000103069800EB001001EB40001F300122C9
:102CD000014605906048FDF799FF5F4800785F491D
:102CE000097800EB012000B25C4908800846B0F981
:102CF000000000F08BFE4FF066325B4BCDE9020125
:102D000000F02CFDCDE9040100F0F6FC4C49086010
:102D10000846006800F0FEFF4C490860084600685D
:102D200001F014F8059046480168059801F026F96D
:102D30004349086000214248006801F01FF80DD2A5
:102D40003F48006880F000403E49049001F04AF896
:102D5000059000F0DFFF3C49086009E03949384838
:102D6000006801F03FF8059000F0D4FF3649086094
:102D7000354803683548AFF6903102683448FDF7AE
:102D80004BFA3348FEF7F0FB32480078010306980F
:102D900000EB001001EB40002030012201460590BD
:102DA0002D48FDF733FF2C4800782C49088029482E
:102DB00000780103069800EB001001EB4000213081
:102DC0000122014605902448FDF720FF22480078A3
:102DD0002249097800EB012000B22049088008460A
:102DE000B0F9000000F012FE4FF066321E4BCDE944
:102DF000020100F0B3FCCDE9040100F07DFC1049B4
:102E000008600846006800F085FF10490860084621
:102E1000006800F09BFF059009480168059801F0E3
:102E2000ADF80749086000210548006800F0A6FFDA
:102E300024D20348006880F000400249049015E065
:102E40000400002000007A440C000020080000204C
:102E50002801002002000020030000201C000020A8
:102E60000080584000408F406666404000F0BAFF46
:102E7000059000F04FFF1649086009E01549164813
:102E8000006800F0AFFF059000F044FF10490860B3
:102E90000F4803681148AFF6B04102681048FDF7CB
:102EA000BBF90F48FEF760FBAFF6E840FEF75CFBAE
:102EB0000698401CC0B2069006981E28FEF6C2AFC7
:102EC00008480078401C07490870FEF7B1BF0000B1
:102ED0000C00002000007A440400002008000020BC
:102EE000280100200200002010B5002006490860DB
:102EF0001A20FDF7E9FD0120FDF7E6FD0120034959
:102F0000C1F89C0110BD00009C812142008021423B
:102F100010B50020064908601B20FDF7D5FD1020E4
:102F2000FDF7D2FD01200349C1F89C0110BD00004E
:102F30009C8121420080214210B500200749086091
:102F4000F520FDF7C1FDFF20FDF7BEFD0446012081
:102F50000349C1F89C01204610BD00009C8121421C
:102F60000080214210B50024002007490860C320DA
:102F7000FDF7AAFDFF20FDF7A7FD04460120034948
:102F8000C1F89C01204610BD9C8121420080214255
:102F900010B50024002007490860C420FDF794FD07
:102FA000FF20FDF791FD044601200349C1F89C0173
:102FB000204610BD9C8121420080214210B5002492
:102FC000002007490860C520FDF77EFDFF20FDF7C2
:102FD0007BFD044601200349C1F89C01204610BD39
:102FE0009C8121420080214210B500240020074925
:102FF0000860C620FDF768FDFF20FDF765FD04466B
:1030000001200349C1F89C01204610BD9C8121424A
:103010000080214210B50024002007490860C72025
:10302000FDF752FDFF20FDF74FFD04460120034947
:10303000C1F89C01204610BD9C81214200802142A4
:1030400010B50024002007490860C820FDF73CFDAA
:10305000FF20FDF739FD044601200349C1F89C011A
:10306000204610BD9C8121420080214210B50446BB
:103070002078012836D1002074490860012000F032
:103080004BFAE080012000F097FAA17900EB0120D3
:1030900000B2E080012000F0FFF86080012000F025
:1030A0004BF9A17800EB012000B26080012000F014
:1030B00093F9A080012000F0DFF9217900EB0120D5
:1030C00000B2A080012061490860B4F90600001137
:1030D000E080B4F9020000116080B4F9040000112E
:1030E000A080B2E02078022838D100205749091D7D
:1030F0000860022000F010FAE080022000F05CFA84
:10310000A17900EB012000B2E080022000F0C4F8B9
:103110006080022000F010F9A17800EB012000B2DD
:103120006080022000F058F9A080022000F0A4F98D
:10313000217900EB012000B2A08001204349091D44
:103140000860B4F906000011E080B4F90200001133
:103150006080B4F904000011A08076E02078032894
:1031600038D10020394908310860032000F0D4F933
:10317000E080032000F020FAA17900EB012000B2EA
:10318000E080032000F088F86080032000F0D4F88D
:10319000A17800EB012000B26080032000F01CF950
:1031A000A080032000F068F9217900EB012000B233
:1031B000A0800120254908310860B4F906000011FB
:1031C000E080B4F9020000116080B4F9040000113D
:1031D000A0803AE02078042837D100201B490C3128
:1031E0000860042000F098F9E080042000F0E4F981
:1031F000A17900EB012000B2E080042000F04CF83F
:103200006080042000F098F8A17800EB012000B263
:103210006080042000F0E0F8A080042000F02CF989
:10322000217900EB012000B2A080012007490C3178
:103230000860B4F906000011E080B4F90200001142
:103240006080B4F904000011A08010BDA08121426B
:1032500070B504460D461646FFF784FE2080FFF742
:1032600097FE217800EB012000B22080FFF7A6FE38
:103270002880FFF7B9FE297800EB012000B22880F2
:10328000FFF7C8FE3080FFF7DBFE317800EB01204E
:1032900000B2308070BD000070B504460025012CDE
:1032A0000ED1002022490860A920FDF70DFCFF2067
:1032B000FDF70AFC054601201E49C1F8A00134E0D3
:1032C000022C0FD100201A49091D0860A920FDF722
:1032D000FBFBFF20FDF7F8FB054601201549C1F86F
:1032E000A40122E0032C0FD100201149083108600D
:1032F000A920FDF7E9FBFF20FDF7E6FB05460120CD
:103300000C49C1F8A80110E0042C0ED10020084996
:103310000C310860A920FDF7D7FBFF20FDF7D4FB97
:10332000054601200349C1F8AC01284670BD0000E4
:10333000A08121420080214270B504460025012C65
:103340000ED1002022490860A820FDF7BDFBFF2018
:10335000FDF7BAFB054601201E49C1F8A00134E083
:10336000022C0FD100201A49091D0860A820FDF782
:10337000ABFBFF20FDF7A8FB054601201549C1F86E
:10338000A40122E0032C0FD100201149083108606C
:10339000A820FDF799FBFF20FDF796FB05460120CD
:1033A0000C49C1F8A80110E0042C0ED100200849F6
:1033B0000C310860A820FDF787FBFF20FDF784FB98
:1033C000054601200349C1F8AC01284670BD000044
:1033D000A08121420080214270B504460025012CC5
:1033E0000ED1002022490860AB20FDF76DFBFF20C5
:1033F000FDF76AFB054601201E49C1F8A00134E033
:10340000022C0FD100201A49091D0860AB20FDF7DE
:103410005BFBFF20FDF758FB054601201549C1F86D
:10342000A40122E0032C0FD10020114908310860CB
:10343000AB20FDF749FBFF20FDF746FB05460120C9
:103440000C49C1F8A80110E0042C0ED10020084955
:103450000C310860AB20FDF737FBFF20FDF734FB94
:10346000054601200349C1F8AC01284670BD0000A3
:10347000A08121420080214270B504460025012C24
:103480000ED1002022490860AA20FDF71DFBFF2075
:10349000FDF71AFB054601201E49C1F8A00134E0E2
:1034A000022C0FD100201A49091D0860AA20FDF73F
:1034B0000BFBFF20FDF708FB054602201549C1F86C
:1034C000A40122E0032C0FD100201149083108602B
:1034D000AA20FDF7F9FAFF20FDF7F6FA05460220CB
:1034E0000C49C1F8A80110E0042C0ED100200849B5
:1034F0000C310860AA20FDF7E7FAFF20FDF7E4FA97
:10350000054602200349C1F8AC01284670BD000001
:10351000A08121420080214270B504460025012C83
:103520000ED1002022490860AD20FDF7CDFAFF2022
:10353000FDF7CAFA054601201E49C1F8A00134E092
:10354000022C0FD100201A49091D0860AD20FDF79B
:10355000BBFAFF20FDF7B8FA054601201549C1F86E
:10356000A40122E0032C0FD100201149083108608A
:10357000AD20FDF7A9FAFF20FDF7A6FA05460120C8
:103580000C49C1F8A80110E0042C0ED10020084914
:103590000C310860AD20FDF797FAFF20FDF794FA93
:1035A000054601200349C1F8AC01284670BD000062
:1035B000A08121420080214270B504460025012CE3
:1035C0000ED1002022490860AC20FDF77DFAFF20D3
:1035D000FDF77AFA054601201E49C1F8A00134E042
:1035E000022C0FD100201A49091D0860AC20FDF7FC
:1035F0006BFAFF20FDF768FA054601201549C1F86E
:10360000A40122E0032C0FD10020114908310860E9
:10361000AC20FDF759FAFF20FDF756FA05460120C8
:103620000C49C1F8A80110E0042C0ED10020084973
:103630000C310860AC20FDF747FAFF20FDF744FA93
:10364000054601200349C1F8AC01284670BD0000C1
:10365000A08121420080214210B586B0044601219C
:1036600044F20400FDF7F4F84FF40070ADF81400D4
:1036700003208DF8160018208DF8170005A91C48A6
:10368000FCF719FF4FF48060ADF8140004208DF8AA
:10369000170005A91648FCF70EFF25208DF800003D
:1036A00003208DF801008DF8020001208DF8030041
:1036B0006846FDF779F801940020ADF80800ADF8F0
:1036C0000A00ADF80C00ADF810000C20ADF80E00AB
:1036D00001A90848FDF7D0FE012240F22551054816
:1036E000FDF7A5FE01210348FDF75EFE06B010BD03
:1036F000000801400038014021F00042A2F1605270
:10370000B2F5801F01F0004328BFD2F17F6C0BD9C6
:103710005FEA001C43EAC20242EB507018BF7047D8
:1037200028BF20F001007047B2F5801FBCBF1846CB
:1037300070474FEA410C1CF5001F02D2084600F00A
:1037400018BC70B500F024FA00000089FFF7F6BF3E
:103750004FF00040A0F58000704700002DE9C04107
:1037600030B4DFF8A0C23CEA111418BF3CEA1314CD
:1037700000F0EC8081EA03051CEA111444EAD574D8
:1037800018BF1CEA131500F0C780A4EB05044FF026
:10379000004545EAC12145EAC32341EA505143EAC5
:1037A000525304F17F74994204F500344FEAC0206B
:1037B0004FEAC22208BF904200F09C804FEA136596
:1037C0000FF24016765D4FEA134506FB05F7C7F189
:1037D000807706FB07F74FEAD737A7FB03687642E7
:1037E000C8F58038A7FB06CE38BFA8F1010807FB53
:1037F00008E64FF0000EA6FB028CE6FB03CEDCF1E0
:10380000000CCEF1004E38BFAEF1010EA6FB0C58F5
:103810004FF000074FF00005E6FB0E87A1FB08C63E
:10382000A0FB07CE16EB0E0645F10005E1FB076590
:1038300015F1E04E7EBFA4F580345FEA46066D4187
:1038400016F1800745F100054FEA17274FEA066693
:1038500047EA0567A6F1DE46B6F1805F4FEA152517
:103860001FD9384624F0010C05EBC471BCF1FE6F82
:1038700001EB0C1102D8F0BCBDE8008124425CBF12
:1038800001F5801E9EEAC47F02D4F0BCBDE8008131
:10389000244238D4F0BCA1F1C041BDE8004100F0A1
:1038A000C5B94FEAD22242EA43524FEAD323A7FBDB
:1038B00002864FEAD02040EA415007FB03661EEA29
:1038C0000E0F4FEAD12105FB026658BFA6EB00564A
:1038D000B6EB00564FEA520E4EEAC37E18EB0E0EC0
:1038E00056EB530EBDD518EB02085E417F1C55F117
:1038F0000005B6E74FF480154FF000074FF00006C3
:103900004FF00008ADE7F0BC4FF0000001F1C041FE
:1039100001F00041BDE8008111EA0C1F0CEA13150B
:1039200000D00CE013EA0C1F00F025804FF00000DF
:10393000F0BC81EA030101F00041BDE80081F0BC68
:10394000BDE8004181EA030100F070B9F0BCBDE8B8
:10395000004170B500F01CF9097EFC3E00F007B88C
:1039600081EA03014FF0000001F00041704781EA55
:10397000030100F05BB9F0BCBDE800414FF000006E
:1039800021497047FFFDFBF9F7F5F4F2F0EEEDEB9E
:10399000E9E8E6E4E3E1E0DEDDDBDAD8D7D5D4D34D
:1039A000D1D0CFCDCCCBCAC8C7C6C5C4C2C1C0BF99
:1039B000BEBDBCBBBAB9B8B7B6B5B4B3B2B1B0AF9F
:1039C000AEADACABAAA9A8A8A7A6A5A4A3A3A2A183
:1039D000A09F9F9E9D9C9C9B9A999998979796953E
:1039E00095949393929191908F8F8E8E8D8C8C8BDA
:1039F0008B8A898988888787868585848483838262
:103A0000828181800000FF070000F87F10F00042F3
:103A100048BF4042B0FA80F310FA03F10AD0C3F174
:103A20001D0303F580634FEA415002EB035202EBA2
:103A3000D12170474FF0000070470000DFF848C107
:103A400070B51CEA111E1EBF1CEA13159EEA0C0F6E
:103A500095EA0C0F00F06F8081EA030423EA4C130F
:103A60004EEAD47E21EA4C1141F4801143F48013D4
:103A7000AE44A1FB024CA0FB0365AEF17F7E36197C
:103A800055EB0C05A1FB034C4CF10003A0FB021C01
:103A900016EB0C06654153F10003094218BF46F0CE
:103AA000010613F4007F0BD14FEA03314FEA0530D2
:103AB000340341EA155140EA16506FF003020AE060
:103AC0004FEAC3214FEAC520F40241EA555140EACA
:103AD00056506FF0020202EB2E4201EB025585EACE
:103AE000CE710AD05FEA440C18BF24F0004450F1B4
:103AF000000041F1000120EAD47040F2FE7C6245F2
:103B000000D270BDA84214BF4FF080444FF0404433
:103B1000002E08BF0024BEF1806FA8BFA1F1C041F4
:103B2000BDE8704080F282804FF0000001F1C0419A
:103B300001F0004170479EEA0C0F0CEA131518BF04
:103B400095EA0C0F06D04FF0000081EA030E0EF04C
:103B5000004170BD00F01CF88900013E00F007B87C
:103B600000F009B84FEA430C5FEA5C5C08D081EAD8
:103B7000030100F05BB84FEA410C5FEA5C5CF6D1F0
:103B80004FF00000014970470000FF070000F87F78
:103B90000EF1020E2EF0030E5EF8046B364205D4D1
:103BA000012A43EB030515F5001F12D8012841EB4C
:103BB000010C1CF5001F0CD80ED14FEAD17C15F575
:103BC000001F0CEB4C0C0CF1020C08BF4CEBD37C2F
:103BD00004E04FF0080C01E04FEAD37C0CEB4C05FD
:103BE00026FA05F606F00706B6F1040C06D20EEB2F
:103BF000860CBDE870404CF0010C6047DFE80CF02B
:103C0000090B02024FF000414FF00000A1F5002126
:103C100070BD19461046012851EB010418BFD4F5B8
:103C2000001484BF002001F0004170BD0808A0F519
:103C300000114FEA3101704790EA010F48BF81F04F
:103C4000004100F1AC81421A3CBF801A89184FEA4A
:103C5000D0524FF07F4C1CEA410FA2EBD15318BF5A
:103C60009CEA026F00F03B804FF0004C4CEA0020D1
:103C70004CEA012121FA03FC10EB0C0C1ED202F1DC
:103C8000FF325FEA1C2040EBC25038BF70471CF087
:103C90007F0F4FEA400C18BFBCF17F4F38BF704711
:103CA000C3F12003994008BF20F00100BCF17F4F11
:103CB00038BF7047A0F1C04000F05BB94FEA3C004C
:103CC000000A40EBC25028BF1CF0FF0F4FEA400C27
:103CD000E6D018BFBCF17F4F38BF7047EAE79CEAD7
:103CE000026F05D010EA5C0F08BF00F0004070477B
:103CF00010B500F0F8F800BF64FBBE3E401058BF9E
:103D0000C0F14040491058BFC1F140418142EFF33A
:103D10000080704741000B0ED3F19E0208D950F489
:103D200000034FEA032323FA02F048BF40427047E2
:103D300010B500F0D8F800BF4992248000207047E9
:103D40006FF0004282EA20007047000010F000414E
:103D500048BF4042B0FA80F310FA03F2C3F19D036A
:103D60000BD051EAC35101EB1220530638BF704704
:103D700000F1010008BF20F00100704750EA010C7B
:103D800000F113801CF5000F58BFBCF5000F01D4E3
:103D90008842704707D710F5000F58BF11F5000F84
:103DA00015D488427047894270471CF5000F04D52E
:103DB000BCF5000FF7D5814270474FF0807C1CEBBB
:103DC000400F38BF1CEB410F01D28142704710B544
:103DD00000F089F8922449004FF000504FF08051D4
:103DE000FFF78CBF4FF47F0C1CEAD0121EBF1CEAF9
:103DF000D11392EA0C0F93EA0C0F00F0478090EA7F
:103E0000010F48BF42F480724FF0004C4CEA002092
:103E10004CEA012102EB0302A0FB0113A2F5000210
:103E2000002918BF43F001035B0028BF4FEA3303AA
:103E300042EB22425FEA132C4CEBC2502EBFBCEB8C
:103E4000436FB2F57C0F70474FEA036CBCF1004F33
:103E500008BF20F00100B2F57C0F38BF70470BD5CA
:103E600082F0FF0212F5803FC8BF704700F1C040EA
:103E7000D8BF00F00040704700F5000C5FEA4C0C22
:103E800048BF7047B0F1C04000F073B890EA010F2E
:103E90000CEAD11348BF42F48072624538BF6345D3
:103EA00004D280EA010000F00040704710B500F035
:103EB0001AF800BF8900013E00F007B800F009B809
:103EC0005FEA410C5FEA1C6C08D080EA010000F058
:103ED00050B85FEA400C5FEA1C6CF6D14FF000402E
:103EE000A0F5800070470EF1020E2EF0030E5EF872
:103EF000044B244204D44FEA4102B2F17F4F11D85F
:103F00004FEA4003B3F17F4F0CD80ED14FEAD07C7B
:103F1000B2F17F4F0CEB4C0C0CF1020C08BF4CEBD8
:103F2000D17C04E04FF0080C01E04FEAD17C0CEBAF
:103F30004C0324FA03F404F00704B4F1040C06D291
:103F40000EEB840CBDE810404CF0010C6047DFE83C
:103F50000CF0070802024FF00040A0F5800010BDF1
:103F60000846420018BFD2F1807288BF00F00040BE
:103F700010BDFF2141EAD050C005704780F00040DD
:103F800090EA010F7FF55FAE81F0004100F007B8C5
:103F900090EA010F48BF81F000413FF554AE421A4C
:103FA00004D882F00042A0EB020011444FEAD05244
:103FB0004FF07F4C1CEA410FA2EBD15318BF9CEA93
:103FC000026F4AD04FF0004C4CEA00204CEA01212D
:103FD00021FA03FCB0EB0C0C0FD412F0FE0F36D01C
:103FE0005FEA4C001DD5001240EBC25038BF70474D
:103FF0001CF03F0F18BF70470BE0A2F101025FEA0F
:104000001C2040EBC25038BF70471CF07F0F18BF18
:104010007047C3F12003994014BF401E20F00100F7
:10402000704780084FEA122308BF7047B0FA80FC3F
:10403000A2EB0C02CCF1280C60FA0CF093EA122FE0
:1040400004BF00EBC25070474FEAC3707047130AB9
:104050005FEADC1008BF7047F6E79CEA026F04D005
:1040600010EA5C0F08BF0020704710B5FFF73BFF58
:1040700040DFF63E81F00040704700009C400008A1
:1040800000000020280100006C010008C441000865
:1040900028010020C017000088010008000000006F
:1040A0000000000000000000000000000000000010
:1040B0000000000000000000000000000000000000
:1040C00000A24A04000000000000000001020304F6
:1040D00006070809000000000000000000000000C2
:1040E000000041542B43574D4F44453D310041544E
:1040F0002B5253540041542B43574A41503D2242C6
:104100006F794E657874446F6F72222C223132338E
:10411000343536363534333231220041542B43495D
:104120004653520041542B43495053544152543D3D
:1041300022544350222C223139322E3136382E313E
:104140002E32222C383038300041542B4349504D08
:104150004F44453D310041542B43495053454E4453
:10416000000000000000000000000000000000004F
:10417000000000000000000000000000000000003F
:10418000000000000000000000000000000000002F
:10419000000000000000000000000000000000001F
:1041A00000000000000000000000000016EF00000A
:1041B00000000102030401020304060708090204C7
:0441C00006080000ED
:04000005080001D519
:00000001FF
